{
  "contractName": "RemoteDesktop",
  "abi": [
    {
      "anonymous": false,
      "inputs": [
        {
          "indexed": false,
          "internalType": "uint256",
          "name": "sessionId",
          "type": "uint256"
        },
        {
          "indexed": false,
          "internalType": "address",
          "name": "user",
          "type": "address"
        },
        {
          "indexed": false,
          "internalType": "uint256",
          "name": "startTime",
          "type": "uint256"
        }
      ],
      "name": "SessionStarted",
      "type": "event"
    },
    {
      "anonymous": false,
      "inputs": [
        {
          "indexed": true,
          "internalType": "address",
          "name": "user",
          "type": "address"
        }
      ],
      "name": "UserRegistered",
      "type": "event"
    },
    {
      "inputs": [],
      "name": "sessionCount",
      "outputs": [
        {
          "internalType": "uint256",
          "name": "",
          "type": "uint256"
        }
      ],
      "stateMutability": "view",
      "type": "function"
    },
    {
      "inputs": [
        {
          "internalType": "address",
          "name": "",
          "type": "address"
        }
      ],
      "name": "users",
      "outputs": [
        {
          "internalType": "address",
          "name": "publicKey",
          "type": "address"
        },
        {
          "internalType": "bool",
          "name": "isActive",
          "type": "bool"
        }
      ],
      "stateMutability": "view",
      "type": "function"
    },
    {
      "inputs": [],
      "name": "registerUser",
      "outputs": [],
      "stateMutability": "nonpayable",
      "type": "function"
    },
    {
      "inputs": [],
      "name": "startSession",
      "outputs": [],
      "stateMutability": "nonpayable",
      "type": "function"
    }
  ],
  "bytecode": "0x608060405234801561000f575f80fd5b506106518061001d5f395ff3fe608060405234801561000f575f80fd5b506004361061004a575f3560e01c80634d3820eb1461004e57806373cd833614610058578063a87430ba14610076578063fe0ae165146100a7575b5f80fd5b6100566100b1565b005b610060610257565b60405161006d91906103a0565b60405180910390f35b610090600480360381019061008b9190610417565b61025d565b60405161009e92919061046b565b60405180910390f35b6100af6102a7565b005b5f15155f803373ffffffffffffffffffffffffffffffffffffffff1673ffffffffffffffffffffffffffffffffffffffff1681526020019081526020015f205f0160149054906101000a900460ff16151514610142576040517f08c379a0000000000000000000000000000000000000000000000000000000008152600401610139906104ec565b60405180910390fd5b60405180604001604052803373ffffffffffffffffffffffffffffffffffffffff168152602001600115158152505f803373ffffffffffffffffffffffffffffffffffffffff1673ffffffffffffffffffffffffffffffffffffffff1681526020019081526020015f205f820151815f015f6101000a81548173ffffffffffffffffffffffffffffffffffffffff021916908373ffffffffffffffffffffffffffffffffffffffff1602179055506020820151815f0160146101000a81548160ff0219169083151502179055509050503373ffffffffffffffffffffffffffffffffffffffff167f54db7a5cb4735e1aac1f53db512d3390390bb6637bd30ad4bf9fc98667d9b9b960405160405180910390a2565b60015481565b5f602052805f5260405f205f91509050805f015f9054906101000a900473ffffffffffffffffffffffffffffffffffffffff1690805f0160149054906101000a900460ff16905082565b5f803373ffffffffffffffffffffffffffffffffffffffff1673ffffffffffffffffffffffffffffffffffffffff1681526020019081526020015f205f0160149054906101000a900460ff16610332576040517f08c379a000000000000000000000000000000000000000000000000000000000815260040161032990610554565b60405180910390fd5b60015f8154809291906103449061059f565b91905055507f16179d2ae7d0f222358d8b9a730126da72c9a3c322b695c25d9a67dcbad4b745600154334260405161037e939291906105e6565b60405180910390a1565b5f819050919050565b61039a81610388565b82525050565b5f6020820190506103b35f830184610391565b92915050565b5f80fd5b5f73ffffffffffffffffffffffffffffffffffffffff82169050919050565b5f6103e6826103bd565b9050919050565b6103f6816103dc565b8114610400575f80fd5b50565b5f81359050610411816103ed565b92915050565b5f6020828403121561042c5761042b6103b9565b5b5f61043984828501610403565b91505092915050565b61044b816103dc565b82525050565b5f8115159050919050565b61046581610451565b82525050565b5f60408201905061047e5f830185610442565b61048b602083018461045c565b9392505050565b5f82825260208201905092915050565b7f5573657220616c726561647920726567697374657265640000000000000000005f82015250565b5f6104d6601783610492565b91506104e1826104a2565b602082019050919050565b5f6020820190508181035f830152610503816104ca565b9050919050565b7f55736572206e6f742072656769737465726564206f7220696e616374697665005f82015250565b5f61053e601f83610492565b91506105498261050a565b602082019050919050565b5f6020820190508181035f83015261056b81610532565b9050919050565b7f4e487b71000000000000000000000000000000000000000000000000000000005f52601160045260245ffd5b5f6105a982610388565b91507fffffffffffffffffffffffffffffffffffffffffffffffffffffffffffffffff82036105db576105da610572565b5b600182019050919050565b5f6060820190506105f95f830186610391565b6106066020830185610442565b6106136040830184610391565b94935050505056fea2646970667358221220bb971043e5b028b850204e84b1bfb8bdf315738b89bce59effa82c488039d74b64736f6c63430008150033",
  "immutableReferences": {},
  "source": "// SPDX-License-Identifier: MIT\r\npragma solidity ^0.8.0;\r\n\r\ncontract RemoteDesktop {\r\n    struct User {\r\n        address publicKey;\r\n        bool isActive;\r\n    }\r\n\r\n    mapping(address => User) public users;\r\n    uint256 public sessionCount;\r\n\r\n    event UserRegistered(address indexed user);\r\n    event SessionStarted(uint256 sessionId, address user, uint256 startTime);\r\n\r\n    function registerUser() public {\r\n        require(users[msg.sender].isActive == false, \"User already registered\");\r\n        users[msg.sender] = User(msg.sender, true);\r\n        emit UserRegistered(msg.sender);\r\n    }\r\n\r\n    function startSession() public {\r\n        require(users[msg.sender].isActive, \"User not registered or inactive\");\r\n        sessionCount++;\r\n        emit SessionStarted(sessionCount, msg.sender, block.timestamp);\r\n    }\r\n}",
  "sourcePath": "C:\\Users\\mayank\\Desktop\\nnd project\\blockchain\\RemoteDesktopBlockchain\\contracts\\RemoteDesktop.sol",
  "compiler": {
    "name": "solc",
    "version": "0.8.21+commit.d9974bed.Emscripten.clang"
  },
  "schemaVersion": "3.4.16",
  "updatedAt": "2025-02-08T20:49:29.815Z",
  "devdoc": {
    "kind": "dev",
    "methods": {},
    "version": 1
  },
  "userdoc": {
    "kind": "user",
    "methods": {},
    "version": 1
  }
}